{
  "_format": "hh-sol-artifact-1",
  "contractName": "CoreEvidence",
  "sourceName": "contracts/CoreEvidence.sol",
  "abi": [
    {
      "inputs": [],
      "stateMutability": "nonpayable",
      "type": "constructor"
    },
    {
      "anonymous": false,
      "inputs": [
        {
          "indexed": true,
          "internalType": "address",
          "name": "owner",
          "type": "address"
        },
        {
          "indexed": true,
          "internalType": "address",
          "name": "delegatee",
          "type": "address"
        }
      ],
      "name": "Delegated",
      "type": "event"
    },
    {
      "anonymous": false,
      "inputs": [
        {
          "indexed": true,
          "internalType": "address",
          "name": "user",
          "type": "address"
        },
        {
          "indexed": true,
          "internalType": "address",
          "name": "delegatee",
          "type": "address"
        },
        {
          "indexed": false,
          "internalType": "uint256",
          "name": "timestamp",
          "type": "uint256"
        },
        {
          "indexed": false,
          "internalType": "bytes32",
          "name": "evidence",
          "type": "bytes32"
        }
      ],
      "name": "EvidenceAdded",
      "type": "event"
    },
    {
      "anonymous": false,
      "inputs": [
        {
          "indexed": true,
          "internalType": "address",
          "name": "previousOwner",
          "type": "address"
        },
        {
          "indexed": true,
          "internalType": "address",
          "name": "newOwner",
          "type": "address"
        }
      ],
      "name": "OwnershipTransferred",
      "type": "event"
    },
    {
      "inputs": [
        {
          "internalType": "address",
          "name": "newEvidenceDelegate",
          "type": "address"
        }
      ],
      "name": "addEvidenceDelegate",
      "outputs": [],
      "stateMutability": "nonpayable",
      "type": "function"
    },
    {
      "inputs": [
        {
          "internalType": "address",
          "name": "delegatee",
          "type": "address"
        }
      ],
      "name": "delegateeExists",
      "outputs": [
        {
          "internalType": "bool",
          "name": "",
          "type": "bool"
        }
      ],
      "stateMutability": "view",
      "type": "function"
    },
    {
      "inputs": [
        {
          "internalType": "address",
          "name": "user",
          "type": "address"
        }
      ],
      "name": "evidenceExists",
      "outputs": [
        {
          "internalType": "bool",
          "name": "",
          "type": "bool"
        }
      ],
      "stateMutability": "view",
      "type": "function"
    },
    {
      "inputs": [
        {
          "internalType": "address",
          "name": "",
          "type": "address"
        }
      ],
      "name": "evidences",
      "outputs": [
        {
          "internalType": "address",
          "name": "user",
          "type": "address"
        },
        {
          "internalType": "address",
          "name": "delegatee",
          "type": "address"
        },
        {
          "internalType": "uint256",
          "name": "timestamp",
          "type": "uint256"
        },
        {
          "internalType": "bytes32",
          "name": "evidence",
          "type": "bytes32"
        }
      ],
      "stateMutability": "view",
      "type": "function"
    },
    {
      "inputs": [
        {
          "internalType": "address",
          "name": "user",
          "type": "address"
        }
      ],
      "name": "getEvidence",
      "outputs": [
        {
          "internalType": "address",
          "name": "",
          "type": "address"
        },
        {
          "internalType": "address",
          "name": "",
          "type": "address"
        },
        {
          "internalType": "uint256",
          "name": "",
          "type": "uint256"
        },
        {
          "internalType": "bytes32",
          "name": "",
          "type": "bytes32"
        }
      ],
      "stateMutability": "view",
      "type": "function"
    },
    {
      "inputs": [],
      "name": "numEvidences",
      "outputs": [
        {
          "internalType": "uint32",
          "name": "",
          "type": "uint32"
        }
      ],
      "stateMutability": "view",
      "type": "function"
    },
    {
      "inputs": [],
      "name": "owner",
      "outputs": [
        {
          "internalType": "address",
          "name": "",
          "type": "address"
        }
      ],
      "stateMutability": "view",
      "type": "function"
    },
    {
      "inputs": [],
      "name": "renounceOwnership",
      "outputs": [],
      "stateMutability": "nonpayable",
      "type": "function"
    },
    {
      "inputs": [
        {
          "internalType": "address",
          "name": "user",
          "type": "address"
        },
        {
          "internalType": "uint256",
          "name": "timestamp",
          "type": "uint256"
        },
        {
          "internalType": "bytes32",
          "name": "evidence",
          "type": "bytes32"
        }
      ],
      "name": "submitEvidence",
      "outputs": [],
      "stateMutability": "nonpayable",
      "type": "function"
    },
    {
      "inputs": [
        {
          "internalType": "address",
          "name": "newOwner",
          "type": "address"
        }
      ],
      "name": "transferOwnership",
      "outputs": [],
      "stateMutability": "nonpayable",
      "type": "function"
    }
  ],
  "bytecode": "0x608060405234801561001057600080fd5b50600061001b61006a565b600080546001600160a01b0319166001600160a01b0383169081178255604051929350917f8be0079c531659141344cd1fd0a4f28419497f9722a3daafe3b4186f6b6457e0908290a35061006e565b3390565b6109398061007d6000396000f3fe608060405234801561001057600080fd5b506004361061009e5760003560e01c806383e8541e1161006657806383e8541e146101975780638da5cb5b146101b8578063d63fdd62146101dc578063e3496cd814610202578063f2fde38b146102285761009e565b806360004bd1146100a3578063715018a6146100fb57806375bced6f14610105578063803520231461013f5780638076041d14610171575b600080fd5b6100c9600480360360208110156100b957600080fd5b50356001600160a01b031661024e565b604080516001600160a01b03958616815293909416602084015282840191909152606082015290519081900360800190f35b6101036102b8565b005b61012b6004803603602081101561011b57600080fd5b50356001600160a01b0316610364565b604080519115158252519081900360200190f35b6101036004803603606081101561015557600080fd5b506001600160a01b038135169060208101359060400135610384565b6100c96004803603602081101561018757600080fd5b50356001600160a01b031661054d565b61019f610583565b6040805163ffffffff9092168252519081900360200190f35b6101c061058f565b604080516001600160a01b039092168252519081900360200190f35b610103600480360360208110156101f257600080fd5b50356001600160a01b031661059e565b61012b6004803603602081101561021857600080fd5b50356001600160a01b03166106be565b6101036004803603602081101561023e57600080fd5b50356001600160a01b0316610741565b60008060008061025c610847565b505050506001600160a01b03918216600090815260036020818152604092839020835160808101855281548716808252600183015490971692810183905260028201549481018590529201546060909201829052939491925090565b6102c0610843565b6001600160a01b03166102d161058f565b6001600160a01b03161461031a576040805162461bcd60e51b815260206004820181905260248201526000805160206108bc833981519152604482015290519081900360640190fd5b600080546040516001600160a01b03909116907f8be0079c531659141344cd1fd0a4f28419497f9722a3daafe3b4186f6b6457e0908390a3600080546001600160a01b0319169055565b6001600160a01b0390811660009081526003602052604090205416151590565b60016000610390610843565b6001600160a01b0316815260208101919091526040016000205460ff166103e85760405162461bcd60e51b81526004018080602001828103825260278152602001806108956027913960400191505060405180910390fd5b6103f0610847565b506001600160a01b038084166000908152600360208181526040928390208351608081018552815486168082526001830154909616928101929092526002810154938201939093529101546060820152901561047d5760405162461bcd60e51b81526004018080602001828103825260288152602001806108dc6028913960400191505060405180910390fd5b6001600160a01b0384811680835233602080850182815260408087018981526060880189815260008781526003808752908490208a5181546001600160a01b0319908116918c1691909117825595516001808301805490981691909b1617909555915160028086019190915590519390910192909255815463ffffffff19811663ffffffff918216909701169590951790558351878152908101869052835191937f9380da366a19b19ece11998ad23930566e87dc564ef75353c5c3b4a9f9faf51192918290030190a350505050565b600360208190526000918252604090912080546001820154600283015492909301546001600160a01b0391821693909116919084565b60025463ffffffff1681565b6000546001600160a01b031690565b6105a6610843565b6001600160a01b03166105b761058f565b6001600160a01b031614610600576040805162461bcd60e51b815260206004820181905260248201526000805160206108bc833981519152604482015290519081900360640190fd5b6001600160a01b03811660009081526001602052604090205460ff161561066e576040805162461bcd60e51b815260206004820152601860248201527f64656c65676174656520616c7265616479206578697374730000000000000000604482015290519081900360640190fd5b6001600160a01b0381166000818152600160208190526040808320805460ff19169092179091555133917f4bc154dd35d6a5cb9206482ecb473cdbf2473006d6bce728b9cc0741bcc59ea291a350565b60006106c8610843565b6001600160a01b03166106d961058f565b6001600160a01b031614610722576040805162461bcd60e51b815260206004820181905260248201526000805160206108bc833981519152604482015290519081900360640190fd5b506001600160a01b031660009081526001602052604090205460ff1690565b610749610843565b6001600160a01b031661075a61058f565b6001600160a01b0316146107a3576040805162461bcd60e51b815260206004820181905260248201526000805160206108bc833981519152604482015290519081900360640190fd5b6001600160a01b0381166107e85760405162461bcd60e51b815260040180806020018281038252602681526020018061086f6026913960400191505060405180910390fd5b600080546040516001600160a01b03808516939216917f8be0079c531659141344cd1fd0a4f28419497f9722a3daafe3b4186f6b6457e091a3600080546001600160a01b0319166001600160a01b0392909216919091179055565b3390565b6040805160808101825260008082526020820181905291810182905260608101919091529056fe4f776e61626c653a206e6577206f776e657220697320746865207a65726f2061646472657373436f726545766964656e63653a2063616c6c6572206973206e6f7420612064656c6567617465654f776e61626c653a2063616c6c6572206973206e6f7420746865206f776e6572616e2065766964656e636520616c72656164792065786973747320666f7220746869732075736572a26469706673582212202c0c12073e9d31fa798e63b0ec5ae13caa56caddd4814c4f85bb6ca327b0cac164736f6c63430007030033",
  "linkReferences": {},
  "deployedLinkReferences": {}
}